{
  "contractName": "BasicMission",
  "abi": [
    {
      "inputs": [
        {
          "name": "_identityContract",
          "type": "address"
        },
        {
          "name": "_davTokenContract",
          "type": "address"
        }
      ],
      "payable": false,
      "stateMutability": "nonpayable",
      "type": "constructor"
    },
    {
      "anonymous": false,
      "inputs": [
        {
          "indexed": false,
          "name": "id",
          "type": "bytes32"
        },
        {
          "indexed": false,
          "name": "sellerId",
          "type": "address"
        },
        {
          "indexed": false,
          "name": "buyerId",
          "type": "address"
        }
      ],
      "name": "Create",
      "type": "event"
    },
    {
      "anonymous": false,
      "inputs": [
        {
          "indexed": false,
          "name": "id",
          "type": "bytes32"
        }
      ],
      "name": "Signed",
      "type": "event"
    },
    {
      "constant": false,
      "inputs": [
        {
          "name": "_sellerId",
          "type": "address"
        },
        {
          "name": "_buyerId",
          "type": "address"
        },
        {
          "name": "_cost",
          "type": "uint256"
        }
      ],
      "name": "create",
      "outputs": [],
      "payable": false,
      "stateMutability": "nonpayable",
      "type": "function"
    },
    {
      "constant": false,
      "inputs": [
        {
          "name": "_missionId",
          "type": "bytes32"
        },
        {
          "name": "_buyerId",
          "type": "address"
        }
      ],
      "name": "fulfilled",
      "outputs": [],
      "payable": false,
      "stateMutability": "nonpayable",
      "type": "function"
    }
  ],
  "bytecode": "0x6060604052341561000f57600080fd5b604051604080610d208339810160405280805190602001909190805190602001909190505081600360006101000a81548173ffffffffffffffffffffffffffffffffffffffff021916908373ffffffffffffffffffffffffffffffffffffffff16021790555080600260006101000a81548173ffffffffffffffffffffffffffffffffffffffff021916908373ffffffffffffffffffffffffffffffffffffffff1602179055505050610c59806100c76000396000f30060606040526004361061004c576000357c0100000000000000000000000000000000000000000000000000000000900463ffffffff16806389198fed14610051578063ffe5725f14610097575b600080fd5b341561005c57600080fd5b61009560048080356000191690602001909190803573ffffffffffffffffffffffffffffffffffffffff169060200190919050506100f8565b005b34156100a257600080fd5b6100f6600480803573ffffffffffffffffffffffffffffffffffffffff1690602001909190803573ffffffffffffffffffffffffffffffffffffffff16906020019091908035906020019091905050610667565b005b600360009054906101000a900473ffffffffffffffffffffffffffffffffffffffff1673ffffffffffffffffffffffffffffffffffffffff16630795736082336040518363ffffffff167c0100000000000000000000000000000000000000000000000000000000028152600401808373ffffffffffffffffffffffffffffffffffffffff1673ffffffffffffffffffffffffffffffffffffffff1681526020018273ffffffffffffffffffffffffffffffffffffffff1673ffffffffffffffffffffffffffffffffffffffff16815260200192505050602060405180830381600087803b15156101e857600080fd5b5af115156101f557600080fd5b50505060405180519050151561020a57600080fd5b6000151560016000846000191660001916815260200190815260200160002060040160009054906101000a900460ff16151514151561024857600080fd5b600160008360001916600019168152602001908152602001600020600201546001600084600019166000191681526020019081526020016000206003015414151561029257600080fd5b6001806000846000191660001916815260200190815260200160002060040160006101000a81548160ff021916908315150217905550600060016000846000191660001916815260200190815260200160002060030181905550600260009054906101000a900473ffffffffffffffffffffffffffffffffffffffff1673ffffffffffffffffffffffffffffffffffffffff1663095ea7b330600160008660001916600019168152602001908152602001600020600201546040518363ffffffff167c0100000000000000000000000000000000000000000000000000000000028152600401808373ffffffffffffffffffffffffffffffffffffffff1673ffffffffffffffffffffffffffffffffffffffff16815260200182815260200192505050602060405180830381600087803b15156103ce57600080fd5b5af115156103db57600080fd5b5050506040518051905050600260009054906101000a900473ffffffffffffffffffffffffffffffffffffffff1673ffffffffffffffffffffffffffffffffffffffff166323b872dd30600360009054906101000a900473ffffffffffffffffffffffffffffffffffffffff1673ffffffffffffffffffffffffffffffffffffffff16637b5bd74160016000886000191660001916815260200190815260200160002060000160009054906101000a900473ffffffffffffffffffffffffffffffffffffffff166040518263ffffffff167c0100000000000000000000000000000000000000000000000000000000028152600401808273ffffffffffffffffffffffffffffffffffffffff1673ffffffffffffffffffffffffffffffffffffffff168152602001915050602060405180830381600087803b151561051f57600080fd5b5af1151561052c57600080fd5b50505060405180519050600160008760001916600019168152602001908152602001600020600201546040518463ffffffff167c0100000000000000000000000000000000000000000000000000000000028152600401808473ffffffffffffffffffffffffffffffffffffffff1673ffffffffffffffffffffffffffffffffffffffff1681526020018373ffffffffffffffffffffffffffffffffffffffff1673ffffffffffffffffffffffffffffffffffffffff1681526020018281526020019350505050602060405180830381600087803b151561060c57600080fd5b5af1151561061957600080fd5b50505060405180519050507f2563bf12e759147ae41a036dffeece03c4db05da3b738a30dd100821f498c57c8260405180826000191660001916815260200191505060405180910390a15050565b6000600360009054906101000a900473ffffffffffffffffffffffffffffffffffffffff1673ffffffffffffffffffffffffffffffffffffffff16630795736084336040518363ffffffff167c0100000000000000000000000000000000000000000000000000000000028152600401808373ffffffffffffffffffffffffffffffffffffffff1673ffffffffffffffffffffffffffffffffffffffff1681526020018273ffffffffffffffffffffffffffffffffffffffff1673ffffffffffffffffffffffffffffffffffffffff16815260200192505050602060405180830381600087803b151561075957600080fd5b5af1151561076657600080fd5b50505060405180519050151561077b57600080fd5b81600360009054906101000a900473ffffffffffffffffffffffffffffffffffffffff1673ffffffffffffffffffffffffffffffffffffffff1663f8b2cb4f856040518263ffffffff167c0100000000000000000000000000000000000000000000000000000000028152600401808273ffffffffffffffffffffffffffffffffffffffff1673ffffffffffffffffffffffffffffffffffffffff168152602001915050602060405180830381600087803b151561083857600080fd5b5af1151561084557600080fd5b505050604051805190501015151561085c57600080fd5b600260009054906101000a900473ffffffffffffffffffffffffffffffffffffffff1673ffffffffffffffffffffffffffffffffffffffff166323b872dd3330856040518463ffffffff167c0100000000000000000000000000000000000000000000000000000000028152600401808473ffffffffffffffffffffffffffffffffffffffff1673ffffffffffffffffffffffffffffffffffffffff1681526020018373ffffffffffffffffffffffffffffffffffffffff1673ffffffffffffffffffffffffffffffffffffffff1681526020018281526020019350505050602060405180830381600087803b151561095457600080fd5b5af1151561096157600080fd5b50505060405180519050504384846000808154809291906001019190505560405180807f42617369634d697373696f6e0000000000000000000000000000000000000000815250600c018581526020018473ffffffffffffffffffffffffffffffffffffffff1673ffffffffffffffffffffffffffffffffffffffff166c010000000000000000000000000281526014018373ffffffffffffffffffffffffffffffffffffffff1673ffffffffffffffffffffffffffffffffffffffff166c010000000000000000000000000281526014018281526020019450505050506040518091039020905060a0604051908101604052808573ffffffffffffffffffffffffffffffffffffffff1681526020018473ffffffffffffffffffffffffffffffffffffffff1681526020018381526020018381526020016000151581525060016000836000191660001916815260200190815260200160002060008201518160000160006101000a81548173ffffffffffffffffffffffffffffffffffffffff021916908373ffffffffffffffffffffffffffffffffffffffff16021790555060208201518160010160006101000a81548173ffffffffffffffffffffffffffffffffffffffff021916908373ffffffffffffffffffffffffffffffffffffffff160217905550604082015181600201556060820151816003015560808201518160040160006101000a81548160ff0219169083151502179055509050507f0d87513b68afc9f4f16272206a73bfde370c86b8e9dadd0e4ab99f763b1d61168185856040518084600019166000191681526020018373ffffffffffffffffffffffffffffffffffffffff1673ffffffffffffffffffffffffffffffffffffffff1681526020018273ffffffffffffffffffffffffffffffffffffffff1673ffffffffffffffffffffffffffffffffffffffff168152602001935050505060405180910390a1505050505600a165627a7a72305820006608751890d90fce9167034a0cb532f6482ced975f5feab5727317e84326c80029",
  "source": "pragma solidity ^0.4.15;\n\nimport './Identity.sol';\nimport './DAVToken.sol';\n\n\n/**\n * @title BasicMission\n * @dev The most basic contract for conducting Missions.\n *\n * This contract represents the very basic interface of a mission contract.\n * In the real world, there is very little reason to use this and not one of the\n * contracts that extend it. Consider this an interface, more than an implementation.\n */\ncontract BasicMission {\n\n  uint256 private nonce;\n\n  struct Mission {\n    address seller;\n    address buyer;\n    uint256 cost;\n    uint256 balance;\n    bool isSigned;\n    mapping (uint8 => bool) resolvers;\n  }\n\n  mapping (bytes32 => Mission) private missions;\n\n  event Create(\n    bytes32 id,\n    address sellerId,\n    address buyerId\n  );\n\n  event Signed(\n    bytes32 id\n  );\n\n  DAVToken private token;\n  Identity private identity;\n\n  /**\n   * @dev Constructor\n   *\n   * @param _identityContract address of the Identity contract\n   * @param _davTokenContract address of the DAVToken contract\n   */\n  function BasicMission(Identity _identityContract, DAVToken _davTokenContract) public {\n    identity = _identityContract;\n    token = _davTokenContract;\n  }\n\n  /**\n   * @notice Create a new mission\n   * @param _sellerId The DAV Identity of the person providing the service\n   * @param _buyerId The DAV Identity of the person ordering the service\n   * @param _cost The total cost of the mission to be paid by buyer\n   */\n  function create(address _sellerId, address _buyerId, uint256 _cost) public {\n    // Verify that message sender controls the buyer's wallet\n    require(\n      identity.verifyOwnership(_buyerId, msg.sender)\n    );\n\n    // Verify buyer's balance is sufficient\n    require(\n      identity.getBalance(_buyerId) >= _cost\n    );\n\n    // Transfer tokens to the mission contract\n    token.transferFrom(msg.sender, this, _cost);\n\n    // Create mission\n    bytes32 missionId = keccak256('BasicMission', block.number, _sellerId, _buyerId, nonce++);\n    missions[missionId] = Mission({\n      seller: _sellerId,\n      buyer: _buyerId,\n      cost: _cost,\n      balance: _cost,\n      isSigned: false\n    });\n\n    // Event\n    Create(missionId, _sellerId, _buyerId);\n  }\n\n  /**\n  * @notice Fund a mission\n  * @param _missionId The id of the mission\n  * @param _buyerId The DAV Identity of the person ordering the service\n  */\n  function fulfilled(bytes32 _missionId, address _buyerId) public {\n    // Verify that message sender controls the seller's wallet\n    require(\n      identity.verifyOwnership(_buyerId, msg.sender)\n    );\n    \n    require(\n      missions[_missionId].isSigned == false\n    );\n\n    require(\n      missions[_missionId].balance == missions[_missionId].cost\n    );\n    \n    \n    // designate mission as signed\n    missions[_missionId].isSigned = true;\n    missions[_missionId].balance = 0;\n    token.approve(this, missions[_missionId].cost);\n    token.transferFrom(this, identity.getIdentityWallet(missions[_missionId].seller), missions[_missionId].cost);\n\n    // Event\n    Signed(_missionId);\n  }\n\n}\n",
  "sourcePath": "/contracts/contracts/BasicMission.sol",
  "compiler": {
    "name": "solc",
    "version": "0.4.21+commit.dfe3193c.Emscripten.clang"
  },
  "schemaVersion": "2.0.0",
  "updatedAt": "2018-03-30T09:15:51.015Z"
}