{
  "contractName": "Identity",
  "abi": [
    {
      "inputs": [
        {
          "name": "_davTokenContract",
          "type": "address"
        }
      ],
      "payable": false,
      "stateMutability": "nonpayable",
      "type": "constructor"
    },
    {
      "constant": false,
      "inputs": [
        {
          "name": "_id",
          "type": "address"
        },
        {
          "name": "_v",
          "type": "uint8"
        },
        {
          "name": "_r",
          "type": "bytes32"
        },
        {
          "name": "_s",
          "type": "bytes32"
        }
      ],
      "name": "register",
      "outputs": [],
      "payable": false,
      "stateMutability": "nonpayable",
      "type": "function"
    },
    {
      "constant": false,
      "inputs": [],
      "name": "registerSimple",
      "outputs": [],
      "payable": false,
      "stateMutability": "nonpayable",
      "type": "function"
    },
    {
      "constant": true,
      "inputs": [
        {
          "name": "_id",
          "type": "address"
        }
      ],
      "name": "getBalance",
      "outputs": [
        {
          "name": "balance",
          "type": "uint256"
        }
      ],
      "payable": false,
      "stateMutability": "view",
      "type": "function"
    },
    {
      "constant": true,
      "inputs": [
        {
          "name": "_id",
          "type": "address"
        },
        {
          "name": "_wallet",
          "type": "address"
        }
      ],
      "name": "verifyOwnership",
      "outputs": [
        {
          "name": "verified",
          "type": "bool"
        }
      ],
      "payable": false,
      "stateMutability": "view",
      "type": "function"
    },
    {
      "constant": true,
      "inputs": [
        {
          "name": "_id",
          "type": "address"
        }
      ],
      "name": "isRegistered",
      "outputs": [
        {
          "name": "",
          "type": "bool"
        }
      ],
      "payable": false,
      "stateMutability": "view",
      "type": "function"
    },
    {
      "constant": true,
      "inputs": [
        {
          "name": "_id",
          "type": "address"
        }
      ],
      "name": "getIdentityWallet",
      "outputs": [
        {
          "name": "",
          "type": "address"
        }
      ],
      "payable": false,
      "stateMutability": "view",
      "type": "function"
    }
  ],
  "bytecode": "0x6060604052341561000f57600080fd5b6040516020806109aa8339810160405280805190602001909190505080600160006101000a81548173ffffffffffffffffffffffffffffffffffffffff021916908373ffffffffffffffffffffffffffffffffffffffff1602179055505061092e8061007c6000396000f300606060405260043610610078576000357c0100000000000000000000000000000000000000000000000000000000900463ffffffff168063079573601461007d5780633c56e2ae146100ed5780635db3f9631461014c5780637b5bd74114610161578063c3c5a547146101da578063f8b2cb4f1461022b575b600080fd5b341561008857600080fd5b6100d3600480803573ffffffffffffffffffffffffffffffffffffffff1690602001909190803573ffffffffffffffffffffffffffffffffffffffff16906020019091905050610278565b604051808215151515815260200191505060405180910390f35b34156100f857600080fd5b61014a600480803573ffffffffffffffffffffffffffffffffffffffff1690602001909190803560ff169060200190919080356000191690602001909190803560001916906020019091905050610312565b005b341561015757600080fd5b61015f6105a0565b005b341561016c57600080fd5b610198600480803573ffffffffffffffffffffffffffffffffffffffff169060200190919050506106d6565b604051808273ffffffffffffffffffffffffffffffffffffffff1673ffffffffffffffffffffffffffffffffffffffff16815260200191505060405180910390f35b34156101e557600080fd5b610211600480803573ffffffffffffffffffffffffffffffffffffffff16906020019091905050610741565b604051808215151515815260200191505060405180910390f35b341561023657600080fd5b610262600480803573ffffffffffffffffffffffffffffffffffffffff169060200190919050506107c5565b6040518082815260200191505060405180910390f35b60008173ffffffffffffffffffffffffffffffffffffffff166000808573ffffffffffffffffffffffffffffffffffffffff1673ffffffffffffffffffffffffffffffffffffffff16815260200190815260200160002060000160009054906101000a900473ffffffffffffffffffffffffffffffffffffffff1673ffffffffffffffffffffffffffffffffffffffff1614905092915050565b6000806000808773ffffffffffffffffffffffffffffffffffffffff1673ffffffffffffffffffffffffffffffffffffffff16815260200190815260200160002060000160009054906101000a900473ffffffffffffffffffffffffffffffffffffffff1673ffffffffffffffffffffffffffffffffffffffff1614151561039957600080fd5b7f19457468657265756d205369676e6564204d6573736167653a0a3332000000007f444156204964656e7469747920526567697374726174696f6e00000000000000604051808266ffffffffffffff191666ffffffffffffff191681526019019150506040518091039020604051808363ffffffff191663ffffffff19168152601c01826000191660001916815260200192505050604051809103902090508473ffffffffffffffffffffffffffffffffffffffff16600182868686604051600081526020016040526040518085600019166000191681526020018460ff1660ff1681526020018360001916600019168152602001826000191660001916815260200194505050505060206040516020810390808403906000865af115156104c057600080fd5b50506020604051035173ffffffffffffffffffffffffffffffffffffffff161415156104eb57600080fd5b6020604051908101604052803373ffffffffffffffffffffffffffffffffffffffff168152506000808773ffffffffffffffffffffffffffffffffffffffff1673ffffffffffffffffffffffffffffffffffffffff16815260200190815260200160002060008201518160000160006101000a81548173ffffffffffffffffffffffffffffffffffffffff021916908373ffffffffffffffffffffffffffffffffffffffff1602179055509050505050505050565b60008060003373ffffffffffffffffffffffffffffffffffffffff1673ffffffffffffffffffffffffffffffffffffffff16815260200190815260200160002060000160009054906101000a900473ffffffffffffffffffffffffffffffffffffffff1673ffffffffffffffffffffffffffffffffffffffff1614151561062657600080fd5b6020604051908101604052803373ffffffffffffffffffffffffffffffffffffffff168152506000803373ffffffffffffffffffffffffffffffffffffffff1673ffffffffffffffffffffffffffffffffffffffff16815260200190815260200160002060008201518160000160006101000a81548173ffffffffffffffffffffffffffffffffffffffff021916908373ffffffffffffffffffffffffffffffffffffffff160217905550905050565b60008060008373ffffffffffffffffffffffffffffffffffffffff1673ffffffffffffffffffffffffffffffffffffffff16815260200190815260200160002060000160009054906101000a900473ffffffffffffffffffffffffffffffffffffffff169050919050565b6000806000808473ffffffffffffffffffffffffffffffffffffffff1673ffffffffffffffffffffffffffffffffffffffff16815260200190815260200160002060000160009054906101000a900473ffffffffffffffffffffffffffffffffffffffff1673ffffffffffffffffffffffffffffffffffffffff1614159050919050565b6000600160009054906101000a900473ffffffffffffffffffffffffffffffffffffffff1673ffffffffffffffffffffffffffffffffffffffff166370a082316000808573ffffffffffffffffffffffffffffffffffffffff1673ffffffffffffffffffffffffffffffffffffffff16815260200190815260200160002060000160009054906101000a900473ffffffffffffffffffffffffffffffffffffffff166040518263ffffffff167c0100000000000000000000000000000000000000000000000000000000028152600401808273ffffffffffffffffffffffffffffffffffffffff1673ffffffffffffffffffffffffffffffffffffffff168152602001915050602060405180830381600087803b15156108e457600080fd5b5af115156108f157600080fd5b5050506040518051905090509190505600a165627a7a7230582033bdd5e0c16e72cc272e48191d2942ceab8efe2bf0e8574ea55dba9ef184640b0029",
  "source": "pragma solidity ^0.4.15;\n\nimport './DAVToken.sol';\n\n\n/**\n * @title Identity\n */\ncontract Identity {\n\n  struct DAVIdentity {\n    address wallet;\n  }\n\n  mapping (address => DAVIdentity) private identities;\n\n  DAVToken private token;\n\n  // Prefix to added to messages signed by web3\n  bytes28 private constant ETH_SIGNED_MESSAGE_PREFIX = '\\x19Ethereum Signed Message:\\n32';\n  bytes25 private constant DAV_REGISTRATION_REQUEST = 'DAV Identity Registration';\n\n  /**\n   * @dev Constructor\n   *\n   * @param _davTokenContract address of the DAVToken contract\n   */\n  function Identity(DAVToken _davTokenContract) public {\n    token = _davTokenContract;\n  }\n\n  function register(address _id, uint8 _v, bytes32 _r, bytes32 _s) public {\n    // Make sure id isn't registered already\n    require(\n      identities[_id].wallet == 0x0\n    );\n    // Generate message hash\n    bytes32 prefixedHash = keccak256(ETH_SIGNED_MESSAGE_PREFIX, keccak256(DAV_REGISTRATION_REQUEST));\n    // Verify message signature\n    require(\n      ecrecover(prefixedHash, _v, _r, _s) == _id\n    );\n\n    // Register in identities mapping\n    identities[_id] = DAVIdentity({\n      wallet: msg.sender\n    });\n  }\n\n  function registerSimple() public {\n    // Make sure id isn't registered already\n    require(\n      identities[msg.sender].wallet == 0x0\n    );\n\n    // Register in identities mapping\n    identities[msg.sender] = DAVIdentity({\n      wallet: msg.sender\n    });\n  }\n\n  function getBalance(address _id) public view returns (uint256 balance) {\n    return token.balanceOf(identities[_id].wallet);\n  }\n\n  function verifyOwnership(address _id, address _wallet) public view returns (bool verified) {\n    return identities[_id].wallet == _wallet;\n  }\n\n  // Check identity registration status\n  function isRegistered(address _id) public view returns (bool) {\n    return identities[_id].wallet != 0x0;\n  }\n\n  // Get identity wallet\n  function getIdentityWallet(address _id) public view returns (address) {\n    return identities[_id].wallet;\n  }\n}\n",
  "sourcePath": "/contracts/contracts/Identity.sol",
  "compiler": {
    "name": "solc",
    "version": "0.4.21+commit.dfe3193c.Emscripten.clang"
  },
  "schemaVersion": "2.0.0",
  "updatedAt": "2018-03-30T09:15:51.011Z"
}