{
  "contractName": "Identity",
  "abi": [
    {
      "inputs": [
        {
          "name": "_davTokenContract",
          "type": "address"
        }
      ],
      "payable": false,
      "stateMutability": "nonpayable",
      "type": "constructor"
    },
    {
      "constant": false,
      "inputs": [
        {
          "name": "_id",
          "type": "address"
        },
        {
          "name": "_v",
          "type": "uint8"
        },
        {
          "name": "_r",
          "type": "bytes32"
        },
        {
          "name": "_s",
          "type": "bytes32"
        }
      ],
      "name": "register",
      "outputs": [],
      "payable": false,
      "stateMutability": "nonpayable",
      "type": "function"
    },
    {
      "constant": false,
      "inputs": [],
      "name": "registerSimple",
      "outputs": [],
      "payable": false,
      "stateMutability": "nonpayable",
      "type": "function"
    },
    {
      "constant": true,
      "inputs": [
        {
          "name": "_id",
          "type": "address"
        }
      ],
      "name": "getBalance",
      "outputs": [
        {
          "name": "balance",
          "type": "uint256"
        }
      ],
      "payable": false,
      "stateMutability": "view",
      "type": "function"
    },
    {
      "constant": true,
      "inputs": [
        {
          "name": "_id",
          "type": "address"
        },
        {
          "name": "_wallet",
          "type": "address"
        }
      ],
      "name": "verifyOwnership",
      "outputs": [
        {
          "name": "verified",
          "type": "bool"
        }
      ],
      "payable": false,
      "stateMutability": "view",
      "type": "function"
    },
    {
      "constant": true,
      "inputs": [
        {
          "name": "_id",
          "type": "address"
        }
      ],
      "name": "isRegistered",
      "outputs": [
        {
          "name": "",
          "type": "bool"
        }
      ],
      "payable": false,
      "stateMutability": "view",
      "type": "function"
    },
    {
      "constant": true,
      "inputs": [
        {
          "name": "_id",
          "type": "address"
        }
      ],
      "name": "getIdentityWallet",
      "outputs": [
        {
          "name": "",
          "type": "address"
        }
      ],
      "payable": false,
      "stateMutability": "view",
      "type": "function"
    }
  ],
  "bytecode": "0x608060405234801561001057600080fd5b50604051602080610a168339810180604052810190808051906020019092919050505080600160006101000a81548173ffffffffffffffffffffffffffffffffffffffff021916908373ffffffffffffffffffffffffffffffffffffffff16021790555050610992806100846000396000f300608060405260043610610078576000357c0100000000000000000000000000000000000000000000000000000000900463ffffffff168063079573601461007d5780633c56e2ae146100f85780635db3f963146101645780637b5bd7411461017b578063c3c5a547146101fe578063f8b2cb4f14610259575b600080fd5b34801561008957600080fd5b506100de600480360381019080803573ffffffffffffffffffffffffffffffffffffffff169060200190929190803573ffffffffffffffffffffffffffffffffffffffff1690602001909291905050506102b0565b604051808215151515815260200191505060405180910390f35b34801561010457600080fd5b50610162600480360381019080803573ffffffffffffffffffffffffffffffffffffffff169060200190929190803560ff1690602001909291908035600019169060200190929190803560001916906020019092919050505061034a565b005b34801561017057600080fd5b506101796105df565b005b34801561018757600080fd5b506101bc600480360381019080803573ffffffffffffffffffffffffffffffffffffffff169060200190929190505050610715565b604051808273ffffffffffffffffffffffffffffffffffffffff1673ffffffffffffffffffffffffffffffffffffffff16815260200191505060405180910390f35b34801561020a57600080fd5b5061023f600480360381019080803573ffffffffffffffffffffffffffffffffffffffff169060200190929190505050610780565b604051808215151515815260200191505060405180910390f35b34801561026557600080fd5b5061029a600480360381019080803573ffffffffffffffffffffffffffffffffffffffff169060200190929190505050610804565b6040518082815260200191505060405180910390f35b60008173ffffffffffffffffffffffffffffffffffffffff166000808573ffffffffffffffffffffffffffffffffffffffff1673ffffffffffffffffffffffffffffffffffffffff16815260200190815260200160002060000160009054906101000a900473ffffffffffffffffffffffffffffffffffffffff1673ffffffffffffffffffffffffffffffffffffffff1614905092915050565b6000806000808773ffffffffffffffffffffffffffffffffffffffff1673ffffffffffffffffffffffffffffffffffffffff16815260200190815260200160002060000160009054906101000a900473ffffffffffffffffffffffffffffffffffffffff1673ffffffffffffffffffffffffffffffffffffffff161415156103d157600080fd5b7f19457468657265756d205369676e6564204d6573736167653a0a3332000000007f444156204964656e7469747920526567697374726174696f6e00000000000000604051808266ffffffffffffff191666ffffffffffffff191681526019019150506040518091039020604051808363ffffffff191663ffffffff19168152601c01826000191660001916815260200192505050604051809103902090508473ffffffffffffffffffffffffffffffffffffffff16600182868686604051600081526020016040526040518085600019166000191681526020018460ff1660ff1681526020018360001916600019168152602001826000191660001916815260200194505050505060206040516020810390808403906000865af11580156104fe573d6000803e3d6000fd5b5050506020604051035173ffffffffffffffffffffffffffffffffffffffff1614151561052a57600080fd5b6020604051908101604052803373ffffffffffffffffffffffffffffffffffffffff168152506000808773ffffffffffffffffffffffffffffffffffffffff1673ffffffffffffffffffffffffffffffffffffffff16815260200190815260200160002060008201518160000160006101000a81548173ffffffffffffffffffffffffffffffffffffffff021916908373ffffffffffffffffffffffffffffffffffffffff1602179055509050505050505050565b60008060003373ffffffffffffffffffffffffffffffffffffffff1673ffffffffffffffffffffffffffffffffffffffff16815260200190815260200160002060000160009054906101000a900473ffffffffffffffffffffffffffffffffffffffff1673ffffffffffffffffffffffffffffffffffffffff1614151561066557600080fd5b6020604051908101604052803373ffffffffffffffffffffffffffffffffffffffff168152506000803373ffffffffffffffffffffffffffffffffffffffff1673ffffffffffffffffffffffffffffffffffffffff16815260200190815260200160002060008201518160000160006101000a81548173ffffffffffffffffffffffffffffffffffffffff021916908373ffffffffffffffffffffffffffffffffffffffff160217905550905050565b60008060008373ffffffffffffffffffffffffffffffffffffffff1673ffffffffffffffffffffffffffffffffffffffff16815260200190815260200160002060000160009054906101000a900473ffffffffffffffffffffffffffffffffffffffff169050919050565b6000806000808473ffffffffffffffffffffffffffffffffffffffff1673ffffffffffffffffffffffffffffffffffffffff16815260200190815260200160002060000160009054906101000a900473ffffffffffffffffffffffffffffffffffffffff1673ffffffffffffffffffffffffffffffffffffffff1614159050919050565b6000600160009054906101000a900473ffffffffffffffffffffffffffffffffffffffff1673ffffffffffffffffffffffffffffffffffffffff166370a082316000808573ffffffffffffffffffffffffffffffffffffffff1673ffffffffffffffffffffffffffffffffffffffff16815260200190815260200160002060000160009054906101000a900473ffffffffffffffffffffffffffffffffffffffff166040518263ffffffff167c0100000000000000000000000000000000000000000000000000000000028152600401808273ffffffffffffffffffffffffffffffffffffffff1673ffffffffffffffffffffffffffffffffffffffff168152602001915050602060405180830381600087803b15801561092457600080fd5b505af1158015610938573d6000803e3d6000fd5b505050506040513d602081101561094e57600080fd5b810190808051906020019092919050505090509190505600a165627a7a7230582031d60c97783048ae1ede1916ea8eb7ef47b64c44f301852352a8f90c535b1ac20029",
  "source": "pragma solidity 0.4.23;\n\nimport './DAVToken.sol';\n\n\n/**\n * @title Identity\n */\ncontract Identity {\n\n  struct DAVIdentity {\n    address wallet;\n  }\n\n  mapping (address => DAVIdentity) private identities;\n\n  DAVToken private token;\n\n  // Prefix to added to messages signed by web3\n  bytes28 private constant ETH_SIGNED_MESSAGE_PREFIX = '\\x19Ethereum Signed Message:\\n32';\n  bytes25 private constant DAV_REGISTRATION_REQUEST = 'DAV Identity Registration';\n\n  /**\n   * @dev Constructor\n   *\n   * @param _davTokenContract address of the DAVToken contract\n   */\n  function Identity(DAVToken _davTokenContract) public {\n    token = _davTokenContract;\n  }\n\n  function register(address _id, uint8 _v, bytes32 _r, bytes32 _s) public {\n    // Make sure id isn't registered already\n    require(\n      identities[_id].wallet == 0x0\n    );\n    // Generate message hash\n    bytes32 prefixedHash = keccak256(ETH_SIGNED_MESSAGE_PREFIX, keccak256(DAV_REGISTRATION_REQUEST));\n    // Verify message signature\n    require(\n      ecrecover(prefixedHash, _v, _r, _s) == _id\n    );\n\n    // Register in identities mapping\n    identities[_id] = DAVIdentity({\n      wallet: msg.sender\n    });\n  }\n\n  function registerSimple() public {\n    // Make sure id isn't registered already\n    require(\n      identities[msg.sender].wallet == 0x0\n    );\n\n    // Register in identities mapping\n    identities[msg.sender] = DAVIdentity({\n      wallet: msg.sender\n    });\n  }\n\n  function getBalance(address _id) public view returns (uint256 balance) {\n    return token.balanceOf(identities[_id].wallet);\n  }\n\n  function verifyOwnership(address _id, address _wallet) public view returns (bool verified) {\n    return identities[_id].wallet == _wallet;\n  }\n\n  // Check identity registration status\n  function isRegistered(address _id) public view returns (bool) {\n    return identities[_id].wallet != 0x0;\n  }\n\n  // Get identity wallet\n  function getIdentityWallet(address _id) public view returns (address) {\n    return identities[_id].wallet;\n  }\n}\n",
  "sourcePath": "/data/shahar/code/dav/contracts/contracts/Identity.sol",
  "compiler": {
    "name": "solc",
    "version": "0.4.23+commit.124ca40d.Emscripten.clang"
  },
  "schemaVersion": "3.0.19",
  "updatedAt": "2019-12-24T14:37:49.780Z",
  "devdoc": {
    "methods": {},
    "title": "Identity"
  },
  "userdoc": {
    "methods": {}
  }
}